:020000040000FA
:060000000A128A11FC2F18
:100CAE00700C83120313031C081303180817080093
:100CBE00700C83120313031C881203188816080085
:100CCE00700C83120313031C881103188815080077
:100CDE00700C83120313031C881303188817080063
:100CEE00700C83120313031C081203180816080055
:100CFE0083120313080C0139F200F3017208F0009D
:100D0E007308F1008A2E08008316031388148811C5
:100D1E0008128812081388138312031308128811FD
:100D2E008812081388130800AA2E0130F002003032
:100D3E00031CF103F102C730F200A52EF20BA42E14
:100D4E00A82EA92EAA2E70087104031DAF2EB02E48
:100D5E009C2EB12E0800F401F501D52FD52F0130B0
:100D6E00F4000030F500D52F0A128A118B260A12D4
:100D7E008A110230F4000030F500D52F0030F0005B
:100D8E00F1000A128A116F260A128A110030F00041
:100D9E00F1000A128A1157260A128A110130F00048
:100DAE000030F1000A128A115F260A128A110030F1
:100DBE00F000F1000A128A1167260A128A11013018
:100DCE00F0000030F1000A128A1177260A128A11F9
:100DDE000A128A117F260A128A1170037104031DEA
:100DEE00F92EFA2ED52F0330F4000030F500D52F52
:100DFE00D52FB830F6000B30F7000430F400003079
:100E0E00F500D52F0130F0000030F1000A128A11E2
:100E1E009B260A128A11FF30F6070318F70AFF30D5
:100E2E00F7070A128A117F260A128A1170037104BB
:100E3E00031D222F232F282FB830F6000B30F7007A
:100E4E00282F7708803AFF0080307F02031D312F54
:100E5E00013076020318342F352FD52F0530F400CC
:100E6E000030F500D52FD52F0030F000F1000A121A
:100E7E008A116F260A128A110030F000F1000A1250
:100E8E008A115F260A128A110130F0000030F1003B
:100E9E000A128A1157260A128A11D030F60007302C
:100EAE00F7000630F4000030F500D52F0130F000C9
:100EBE000030F1000A128A119B260A128A11FF30A5
:100ECE00F6070318F70AFF30F7077708803AFF0096
:100EDE0080307F02031D752F013076020318782FA4
:100EEE00792FD52F0730F4000030F500D52FD52FF0
:100EFE000130F0000030F1000A128A116F260A123A
:100F0E008A110030F000F1000A128A115F260A12CF
:100F1E008A110030F000F1000A128A1157260A12C7
:100F2E008A110130F0000030F1000A128A11672692
:100F3E000A128A110030F000F1000A128A11772687
:100F4E000A128A118830F6001330F7000830F400C8
:100F5E000030F500D52F0130F0000030F1000A12FC
:100F6E008A119B260A128A11FF30F6070318F70A18
:100F7E00FF30F7077708803AFF0080307F02031DAD
:100F8E00CA2F013076020318CD2FCE2FD52F023067
:100F9E00F4000030F500D52FD52FD52F7508003A67
:100FAE000319DA2FD52F7408003A0319B62E013A19
:100FBE000319BB2E033A0319C52E013A0319002F4C
:100FCE00073A0319092F013A03193B2F033A031964
:100FDE005D2F013A03197F2F0F3A0319B22FD52F28
:100FEE00D52FD52F0A128A11002883010A128A11D1
:020FFE00B22E11
:04400E00D4E0FFFFFC
:00000001FF
